{
  "contractName": "ProofOfExistence3",
  "abi": [
    {
      "constant": true,
      "inputs": [
        {
          "name": "document",
          "type": "string"
        }
      ],
      "name": "checkDocument",
      "outputs": [
        {
          "name": "",
          "type": "bool"
        }
      ],
      "payable": false,
      "stateMutability": "view",
      "type": "function"
    },
    {
      "constant": false,
      "inputs": [
        {
          "name": "document",
          "type": "string"
        }
      ],
      "name": "notarize",
      "outputs": [],
      "payable": false,
      "stateMutability": "nonpayable",
      "type": "function"
    },
    {
      "constant": false,
      "inputs": [
        {
          "name": "proof",
          "type": "bytes32"
        }
      ],
      "name": "storeProof",
      "outputs": [],
      "payable": false,
      "stateMutability": "nonpayable",
      "type": "function"
    },
    {
      "constant": true,
      "inputs": [
        {
          "name": "proof",
          "type": "bytes32"
        }
      ],
      "name": "hasProof",
      "outputs": [
        {
          "name": "",
          "type": "bool"
        }
      ],
      "payable": false,
      "stateMutability": "view",
      "type": "function"
    },
    {
      "constant": true,
      "inputs": [
        {
          "name": "document",
          "type": "string"
        }
      ],
      "name": "generateProofFor",
      "outputs": [
        {
          "name": "",
          "type": "bytes32"
        }
      ],
      "payable": false,
      "stateMutability": "view",
      "type": "function"
    }
  ],
  "bytecode": "0x6060604052341561000f57600080fd5b6103848061001e6000396000f30060606040526004361061006d576000357c0100000000000000000000000000000000000000000000000000000000900463ffffffff16806353fb9233146100725780637183616c146100e75780638952877b14610144578063e3d1e6d61461016b578063e9532806146101aa575b600080fd5b341561007d57600080fd5b6100cd600480803590602001908201803590602001908080601f01602080910402602001604051908101604052809392919081815260200183838082843782019150505050505091905050610223565b604051808215151515815260200191505060405180910390f35b34156100f257600080fd5b610142600480803590602001908201803590602001908080601f01602080910402602001604051908101604052809392919081815260200183838082843782019150505050505091905050610242565b005b341561014f57600080fd5b61016960048080356000191690602001909190505061025c565b005b341561017657600080fd5b610190600480803560001916906020019091905050610292565b604051808215151515815260200191505060405180910390f35b34156101b557600080fd5b610205600480803590602001908201803590602001908080601f016020809104026020016040519081016040528093929190818152602001838380828437820191505050505050919050506102c3565b60405180826000191660001916815260200191505060405180910390f35b60008061022f836102c3565b905061023a81610292565b915050919050565b600061024d826102c3565b90506102588161025c565b5050565b6001600080836000191660001916815260200190815260200160002060006101000a81548160ff02191690831515021790555050565b6000806000836000191660001916815260200190815260200160002060009054906101000a900460ff169050919050565b60006002826000604051602001526040518082805190602001908083835b60208310151561030657805182526020820191506020810190506020830392506102e1565b6001836020036101000a03801982511681845116808217855250505050505090500191505060206040518083038160008661646e5a03f1151561034857600080fd5b50506040518051905090509190505600a165627a7a72305820137d6b051f9e9fd2fe1cf33f3a8bf9ae02cc6166463c15ff2a855dbfe3d54d820029",
  "source": "pragma solidity ^0.4.17;\n\n// Proof of Existence contract - version 3\ncontract ProofOfExistence3 {\n\t// State\n\tmapping (bytes32 => bool) private proofs;\n\n\t// Store a proof of existence in the contract state.\n\tfunction storeProof(bytes32 proof) {\n\t\tproofs[proof] = true;\n\t}\n\n\t// Calculate and store the proof for a document\n\tfunction notarize(string document) {\n\t\tvar proof = generateProofFor(document);\n\t\tstoreProof(proof);\n\t}\n\n\t// Helper function to get a document's sha256\n\tfunction generateProofFor(string document) constant returns (bytes32) {\n\t\treturn sha256(document);\n\t}\n\n\t// Check to see if document has been notarized\n\tfunction checkDocument(string document) constant returns (bool) {\n\t\tvar proof = generateProofFor(document);\n\t\treturn hasProof(proof);\n\t}\n\n\t// Returns true if proof is stored\n\tfunction hasProof(bytes32 proof) constant returns (bool) {\n\t\treturn proofs[proof];\n\t}\n}\n",
  "sourcePath": "/home/ec2-user/environment/git/blockchain-solidity-contracts/proof-of-existence/contracts/ProofOfExistence3.sol",
  "compiler": {
    "name": "solc",
    "version": "0.4.18+commit.9cf6e910.Emscripten.clang"
  },
  "schemaVersion": "1.0.1",
  "updatedAt": "2018-01-13T18:33:38.059Z"
}