{
  "contractName": "ProofOfExistence2",
  "abi": [
    {
      "constant": true,
      "inputs": [
        {
          "name": "document",
          "type": "string"
        }
      ],
      "name": "checkDocument",
      "outputs": [
        {
          "name": "",
          "type": "bool"
        }
      ],
      "payable": false,
      "stateMutability": "view",
      "type": "function"
    },
    {
      "constant": false,
      "inputs": [
        {
          "name": "document",
          "type": "string"
        }
      ],
      "name": "notarize",
      "outputs": [],
      "payable": false,
      "stateMutability": "nonpayable",
      "type": "function"
    },
    {
      "constant": false,
      "inputs": [
        {
          "name": "proof",
          "type": "bytes32"
        }
      ],
      "name": "storeProof",
      "outputs": [],
      "payable": false,
      "stateMutability": "nonpayable",
      "type": "function"
    },
    {
      "constant": true,
      "inputs": [
        {
          "name": "proof",
          "type": "bytes32"
        }
      ],
      "name": "hasProof",
      "outputs": [
        {
          "name": "",
          "type": "bool"
        }
      ],
      "payable": false,
      "stateMutability": "view",
      "type": "function"
    },
    {
      "constant": true,
      "inputs": [
        {
          "name": "document",
          "type": "string"
        }
      ],
      "name": "generateProofFor",
      "outputs": [
        {
          "name": "",
          "type": "bytes32"
        }
      ],
      "payable": false,
      "stateMutability": "view",
      "type": "function"
    }
  ],
  "bytecode": "0x6060604052341561000f57600080fd5b6104008061001e6000396000f30060606040526004361061006d576000357c0100000000000000000000000000000000000000000000000000000000900463ffffffff16806353fb9233146100725780637183616c146100e75780638952877b14610144578063e3d1e6d61461016b578063e9532806146101aa575b600080fd5b341561007d57600080fd5b6100cd600480803590602001908201803590602001908080601f01602080910402602001604051908101604052809392919081815260200183838082843782019150505050505091905050610223565b604051808215151515815260200191505060405180910390f35b34156100f257600080fd5b610142600480803590602001908201803590602001908080601f01602080910402602001604051908101604052809392919081815260200183838082843782019150505050505091905050610242565b005b341561014f57600080fd5b61016960048080356000191690602001909190505061025c565b005b341561017657600080fd5b61019060048080356000191690602001909190505061028e565b604051808215151515815260200191505060405180910390f35b34156101b557600080fd5b610205600480803590602001908201803590602001908080601f016020809104026020016040519081016040528093929190818152602001838380828437820191505050505050919050506102ee565b60405180826000191660001916815260200191505060405180910390f35b60008061022f836102ee565b905061023a8161028e565b915050919050565b600061024d826102ee565b90506102588161025c565b5050565b600080548060010182816102709190610383565b91600052602060002090016000839091909150906000191690555050565b600080600090505b6000805490508110156102e35782600019166000828154811015156102b757fe5b9060005260206000209001546000191614156102d657600191506102e8565b8080600101915050610296565b600091505b50919050565b60006002826000604051602001526040518082805190602001908083835b602083101515610331578051825260208201915060208101905060208303925061030c565b6001836020036101000a03801982511681845116808217855250505050505090500191505060206040518083038160008661646e5a03f1151561037357600080fd5b5050604051805190509050919050565b8154818355818115116103aa578183600052602060002091820191016103a991906103af565b5b505050565b6103d191905b808211156103cd5760008160009055506001016103b5565b5090565b905600a165627a7a72305820790277f11a1de196aa06ed6fe5b0c9cf78c4e705e6c91e5941fb083331aced970029",
  "source": "pragma solidity ^0.4.17;\n\n// Proof ofExistence contract - version 2\ncontract ProofOfExistence2 {\n\t// State\n\tbytes32[] private proofs;\n\n\t// Store a proof of existence in the contract state\n\t// **transactional function**\n\tfunction storeProof(bytes32 proof) {\n\t\tproofs.push(proof);\n\t}\n\n\t// Calculate and store the proof for a document\n\t// **transactional function**\n\tfunction notarize(string document) {\n\t\tbytes32 proof = generateProofFor(document);\n\t\tstoreProof(proof);\n\t}\n\n\t// Helper function to get a document's sha256\n\t// **read-only function**\n\tfunction generateProofFor(string document) constant returns (bytes32) {\n\t\treturn sha256(document);\n\t}\n\n\t// Check if a document has been notarized\n\t// **read-only function**\n\tfunction checkDocument(string document) constant returns (bool) {\n\t\tbytes32 proof = generateProofFor(document);\n\t\treturn hasProof(proof);\n\t}\n\n\t// returns true if proof is stored\n\t// *read-only function**\n\t// expensive gas to iterate through array\n\tfunction hasProof(bytes32 proof) constant returns (bool) {\n\t\tfor (uint256 i = 0; i < proofs.length; i++) {\n\t\t\tif(proofs[i] == proof) {\n\t\t\t\treturn true;\n\t\t\t}\n\t\t}\n\t\t\n\t\treturn false;\n\t}\n}\n",
  "sourcePath": "/home/ec2-user/environment/git/blockchain-solidity-contracts/proof-of-existence/contracts/ProofOfExistence2.sol",
  "compiler": {
    "name": "solc",
    "version": "0.4.18+commit.9cf6e910.Emscripten.clang"
  },
  "schemaVersion": "1.0.1",
  "updatedAt": "2018-01-13T18:33:38.048Z"
}